:100000000C9463000C948B000C948B000C948B006C
:100010000C948B000C948B000C948B000C948B0034
:100020000C948B000C948B000C948B000C948B0024
:100030000C948B000C948B000C948B000C948B0014
:100040000C9401030C948B000C948B000C948B008B
:100050000C948B000C948B000C948B000C948B00F4
:100060000C948B000C948B000000000024002700EF
:100070002A000000000023002600290000000000E4
:10008000250028002B0004040404040404040202D4
:100090000202020203030303030301020408102007
:1000A0004080010204081020010204081020000012
:1000B0000008000201000003040700000000000027
:1000C00000008D05160611241FBECFEFD8E0DEBF5D
:1000D000CDBF11E0A0E0B1E0EAE8F0E102C0059098
:1000E0000D92AE30B107D9F723E0AEE0B1E001C028
:1000F0001D92A134B207E1F710E0C2E6D0E004C0DF
:100100002197FE010E940D07C136D107C9F70E9451
:100110004B030C9438080C9400004F925F926F923E
:100120007F928F929F92AF92BF92FF92209129036C
:1001300030912A038217930708F043C02B016624ED
:100140007724852E962EA72EBB24B82DA42F209180
:100150002F03F42C222391F0E22FF0E0E49DD00154
:10016000E59DB00DF49DB00D1124FB2E289D40019E
:100170001124B92D249F90011124A32FE091350360
:10018000209130033091310350913203E51323C0A5
:10019000FC01EE0FFF1F8E0F9F1F820F931FE09138
:1001A0003203E80FF92FF11DF082E0913303E80FDD
:1001B000F92FF11DB08320913403820F911DFC01B2
:1001C000A083FF90BF90AF909F908F907F906F9093
:1001D0005F904F900895880F991F880F991F820F85
:1001E000931FE80FF92FF11D1082D9CF833081F0D2
:1001F00028F4813099F08230A9F008958730A9F071
:100200008830C9F08430B1F4809180008F7D03C0C4
:10021000809180008F7780938000089584B58F77D8
:1002200084BD089584B58F7DFBCF8091B0008F771A
:100230008093B00008958091B0008F7DF9CFCF9367
:10024000DF93282F30E0F901E255FF4F8491F90147
:10025000E656FF4FD491F901EA57FF4FC491CC23E2
:1002600091F081110E94F600EC2FF0E0EE0FFF1FDD
:10027000E458FF4FA591B4918FB7F894EC91D095C5
:10028000DE23DC938FBFDF91CF910895CF93DF936F
:10029000282F30E0F901E255FF4F8491F901E6562D
:1002A000FF4FD491F901EA57FF4FC491CC23A1F03D
:1002B00081110E94F600EC2FF0E0EE0FFF1FEE58C8
:1002C000FF4FA591B491EC91ED2381E090E009F40A
:1002D00080E0DF91CF91089580E090E0FACFCF9356
:1002E000DF9390E0FC01E656FF4F24918A579F4F21
:1002F000FC0184918823C9F090E0880F991FFC01CC
:10030000E859FF4FA591B491FC01E458FF4FC59106
:10031000D49161110DC09FB7F8948C9120958223E0
:100320008C938881282328839FBFDF91CF910895E4
:10033000623051F49FB7F8943C91822F80958323CB
:100340008C93E8812E2BEFCF8FB7F894EC912E2B66
:100350002C938FBFEACF3FB7F89480912101909101
:100360002201A0912301B091240126B5A89B05C0CC
:100370002F3F19F00196A11DB11D3FBFBA2FA92F24
:10038000982F8827BC01CD01620F711D811D911D21
:1003900042E0660F771F881F991F4A95D1F708958D
:1003A0000F931F93CF93DF93CDB7DEB729970FB687
:1003B000F894DEBF0FBECDBF809130039091310322
:1003C000892B09F47CC00E94AB0100913603109187
:1003D0003703209138033091390360177107820782
:1003E000930740F460933603709337038093380388
:1003F000909339030091360310913703209138030D
:1004000030913903601B710B820B930B6C3271407E
:1004100081059105C0F2F89480912B0390912C03F3
:100420009A838983E0913003F0913103DF011196C3
:100430008081898790912703E0913A03F0913B03F3
:1004400080913C03992309F445C09081982B9887AB
:100450009081809589238F838F818C8388E08B8323
:1004600058856F8149853B812C8189819A81508390
:1004700047FD252F3A952083262F39F0441F00C0D1
:1004800000006083000000C0F2CF38E04D9160832F
:100490000000019761F7F0933B03E0933A0349872B
:1004A0003B832C839A83898378940E94AB01609369
:1004B000360370933703809338039093390329965A
:1004C0000FB6F894DEBF0FBECDBFDF91CF911F9165
:1004D0000F9108959081982B98879081809589231A
:1004E0008F838F818E8388E08D8358856F814985C6
:1004F0003D812E8189819A81508347FD252F00C03F
:1005000000C0208300C000C000C000C000C06083E5
:100510000000262F3A9541F0441F000000C000C0A3
:1005200000C000C000C0E8CF38E04D9100C060833B
:1005300000C0019709F7F0933B03E0933A03498722
:100540003D832E83AFCF0F931F93CF93DF93C7E2EB
:10055000D1E010E000E0809125019091260108177C
:10056000190714F5DE01B3958D919C91288139818D
:10057000229643E0220F331F4A95E1F78830910518
:100580005CF44FEF50E060E070E0820F931F0E9438
:100590008D000F5F1F4FDFCF820F931F4FEF50E093
:1005A00060E070E0C896F3CFDF91CF911F910F917B
:1005B0000C94D0019B01683071057CF453E0880FE6
:1005C000991F5A95E1F740E050E06FEF70E0820F1D
:1005D000931F0E948D000C94D001409117015091FF
:1005E000180148305105BCF343E0880F991F4A9524
:1005F000E1F7860F971F40E050E06FEF70E0C8967C
:10060000E8CF1F920F920FB60F9211242F933F93B2
:100610008F939F93AF93BF9380911D0190911E0183
:10062000A0911F01B091200130911C0123E0230F04
:100630002D3758F50196A11DB11D20931C01809303
:100640001D0190931E01A0931F01B0932001809182
:10065000210190912201A0912301B09124010196E2
:10066000A11DB11D8093210190932201A09323012C
:10067000B0932401BF91AF919F918F913F912F91A2
:100680000F900FBE0F901F90189526E8230F02962B
:10069000A11DB11DD2CF789484B5826084BD84B58C
:1006A000816084BD85B5826085BD85B5816085BD6D
:1006B00080916E00816080936E0010928100809125
:1006C00081008260809381008091810081608093AD
:1006D0008100809180008160809380008091B100D2
:1006E00084608093B1008091B00081608093B000FD
:1006F00080917A00846080937A0080917A00826091
:1007000080937A0080917A00816080937A00809152
:100710007A00806880937A001092C10062E080E0E5
:100720000E946F0162E081E00E946F0162E082E05E
:100730000E946F0162E083E00E946F0180912D03AF
:1007400090912E0397FD07C061E00E946F01809198
:100750002D030E941F0181E080932803D0E0C0E0B8
:1007600040E05FEF60E070E0CE010E948D002196D6
:10077000C038D105A9F70E94D0010E94A302609160
:1007800002017091030180910001909101010E948A
:10079000DA0260E0262E60E0362ECC24C394D12C01
:1007A00080911B01882379F0D0E0C0E040E05FEF4A
:1007B00060E070E0CE010E948D002196C038D10526
:1007C000A9F70E94D0010091020110910301E0906D
:1007D0000001F0900101B801C7010E94DA02C09146
:1007E0002701D0912801D0931A01C0931901A0903C
:1007F0002702B0902802B0921801A092170180E061
:100800000E944601892BA9F480911501909116014F
:10081000892B79F4D0921401C09213011092120125
:10082000109211011092100110920F0121E02093FB
:100830001B0181E00E944601892BA9F480911301DC
:1008400090911401892B79F4D0921601C092150170
:1008500010921201109211011092100110920F01CA
:1008600081E080931B0182E00E944601892BA9F45C
:1008700080910F0190911001892B79F4109214014D
:10088000109213011092160110921501D0921201CC
:10089000C092110121E020931B0183E00E944601D8
:1008A0002091110130911201892B91F4211531050C
:1008B00079F4109214011092130110921601109203
:1008C0001501D0921001C0920F0181E080931B01AD
:1008D0008091130190911401A80EB91E8091150109
:1008E00090911601A81AB90AB0921801A0921701A6
:1008F000C20FD31F80910F0190911001C81BD90B1B
:10090000D0931A01C093190180911B01882371F0C3
:1009100080910E0181110AC0C830D10520F420E178
:10092000A216B10478F181E080930E010E94AB0120
:100930002B013C014CE2842E99249394A12CB12CE0
:100940000E94AB016419750986099709683E7340D6
:1009500081059105A8F321E0821A9108A108B10848
:1009600088EE480E83E0581E611C711C81149104AE
:10097000A104B10429F72114310409F411CF0E9414
:1009800000000ECFEC16FD0619F40A151B05E9F060
:100990008091250190912601E7E2F1E030E020E02E
:1009A000281739070CF0A2C041915191C417D507FF
:1009B00049F4DF01A250BF4F4D915C91A416B506DA
:1009C00009F4B1CF2F5F3F4FEBCFC70153E0880F42
:1009D000991F5A95E1F7083011050CF03FC040E02F
:1009E0005FEF60E070E0800F911F0E948D000E9419
:1009F000D0010E94720668E070E00E94E5069093C4
:100A00000101809300010E94720660E170E00E9483
:100A1000E506BC01909303018093020180910001DF
:100A2000909101014091250150912601E7E2F1E00A
:100A300030E020E024173507ACF5A191B1918A1779
:100A40009B0749F4DF01A250BF4F0D90BC91A02D30
:100A50006A177B0771F22F5F3F4FECCF800F911F1A
:100A600040E05FEF60E070E0C896BFCF8091170173
:100A70009091180190932802809327028091190188
:100A800090911A0190932801809327010E94A3025C
:100A90004DCFB0922802A0922702D0932801C09394
:100AA0002701F4CF0E94DA0280912501909126015E
:100AB0009C012F5F3F4F3093260120932501FC01BD
:100AC000EE0FFF1FEB5DFE4F181619067CF601971F
:100AD0002081318133832283DF01B3952D913C91B5
:100AE000119712962D933C933297EECFFC01EE0FA7
:100AF000FF1FEB5DFE4F01973297181619064CF653
:100B00002081318133832283DF01B3952D913C9184
:100B1000119712962D933C93EECFCF93DF931092C3
:100B2000280310922F03109236031092370310926D
:100B300038031092390381E08093350380933203A8
:100B40001092330392E09093340380932703C0E81C
:100B5000D1E0D0932C03C0932B0380E891E00E9456
:100B600013079093310380933003009709F455C025
:100B7000FC019E01119221503040E1F780E890E0A5
:100B800090932A03809329038BE090E090932E03A7
:100B900080932D0380912803882339F061E08BE056
:100BA0000E946F018BE00E941F01E1E9F0E0E491F7
:100BB000F0E0EE0FFF1FE458FF4F85919491909362
:100BC0003B0380933A03E5EAF0E0E491E0933C03D1
:100BD00083E090E0909326018093250110922801F4
:100BE0001092270110922A011092290110922C01D3
:100BF00010922B0182E090E09093280280932702CC
:100C000081E090E090932A028093290210922C02B6
:100C100010922B02DF91CF91089510922C03109225
:100C20002B0310922A0310922903AECF8091300338
:100C3000909131030E94AF0780912D0390912E0374
:100C400097FD03C060E00C946F0108958F929F920E
:100C5000AF92BF92CF92DF92EF92FF92CF93DF934A
:100C6000EC01688179818A819B816115710581051B
:100C7000910521F464E279ED8BE597E02DE133EF06
:100C800041E050E00E94820649015A019B01AC01FB
:100C9000A7EAB1E40E94A1066B017C01ACEEB4EFBF
:100CA000A50194010E94AF06DC01CB018C0D9D1DB6
:100CB000AE1DBF1DB7FF03C00197A109B0488883CF
:100CC0009983AA83BB839F77DF91CF91FF90EF90A9
:100CD000DF90CF90BF90AF909F908F9008950E942B
:100CE0002606089584E091E00E9426060895B0E06B
:100CF000A0E08093040190930501A0930601B093B6
:100D000007010895052E97FB1EF400940E94990692
:100D100057FD07D00E94B40607FC03D04EF40C9494
:100D2000990650954095309521953F4F4F4F5F4F15
:100D3000089590958095709561957F4F8F4F9F4F47
:100D400008950E94D606A59F900DB49F900DA49F74
:100D5000800D911D11240895B7FF0C94A1060E94E7
:100D6000A106821B930B0895A1E21A2EAA1BBB1B9E
:100D7000FD010DC0AA1FBB1FEE1FFF1FA217B30767
:100D8000E407F50720F0A21BB30BE40BF50B661F7D
:100D9000771F881F991F1A9469F760957095809541
:100DA00090959B01AC01BD01CF010895A29FB001B8
:100DB000B39FC001A39F700D811D1124911DB29F8F
:100DC000700D811D1124911D089597FB072E16F4B7
:100DD000009407D077FD09D00E94F90607FC05D0E2
:100DE0003EF4909581959F4F0895709561957F4F42
:100DF0000895AA1BBB1B51E107C0AA1FBB1FA61762
:100E0000B70710F0A61BB70B881F991F5A95A9F7B3
:100E100080959095BC01CD010895EE0FFF1F0590C0
:100E2000F491E02D09940F931F93CF93DF938230B9
:100E3000910510F482E090E0E0913F03F0914003CF
:100E400030E020E0B0E0A0E0309799F421153105C2
:100E500009F44AC0281B390B24303105D8F58A81A2
:100E60009B816115710589F1FB0193838283FE01EA
:100E700011C0408151810281138148175907E0F068
:100E80004817590799F4109761F012960C9312972E
:100E900013961C933296CF01DF91CF911F910F9142
:100EA000089500933F0310934003F4CF21153105BB
:100EB00051F04217530738F0A901DB019A01BD0137
:100EC000DF01F801C1CFEF01F9CF90934003809388
:100ED0003F03CDCFFE01E20FF31F81939193225088
:100EE000310939832883D7CF20913D0330913E03C8
:100EF000232B41F420910A0130910B0130933E03E2
:100F000020933D03209108013091090121153105FD
:100F100041F42DB73EB740910C0150910D01241BB7
:100F2000350BE0913D03F0913E03E217F307A0F487
:100F30002E1B3F0B2817390778F0AC014E5F5F4F2F
:100F40002417350748F04E0F5F1F50933E03409320
:100F50003D03819391939FCFF0E0E0E09CCFCF934E
:100F6000DF930097E9F0FC01329713821282A0917F
:100F70003F03B0914003ED0130E020E01097A1F471
:100F800020813181820F931F20913D0330913E03D8
:100F90002817390709F061C0F0933E03E0933D0341
:100FA000DF91CF910895EA01CE17DF07E8F54A8176
:100FB0005B819E0141155105B1F7E901FB83EA838D
:100FC00049915991C40FD51FEC17FD0761F4808139
:100FD00091810296840F951FE9019983888382810C
:100FE00093819B838A83F0E0E0E012968D919C913F
:100FF00013970097B9F52D913C911197CD01029669
:10100000820F931F20913D0330913E03281739072B
:1010100039F6309751F51092400310923F03B09388
:101020003E03A0933D03BCCFD383C2834081518153
:10103000840F951FC817D90761F44E5F5F4F8881F1
:101040009981480F591F518340838A819B819383E3
:1010500082832115310509F0B0CFF0934003E0936E
:101060003F039ECFFD01DC01C0CF13821282D7CF98
:1010700010E0C2E6D0E004C0FE010E940D072196F8
:0A108000C336D107C9F7F894FFCF7B
:0E108A0004000400010000000000410380008B
:00000001FF
