:100000000C94F8020C9420030C9420030C9420030D
:100010000C9420030C9420030C9420030C942003D4
:100020000C9420030C9420030C9420030C942003C4
:100030000C9420030C9420030C9420030C942003B4
:100040000C9422070C9420030C9420030C9420039E
:100050000C9420030C9420030C9420030C94200394
:100060000C9420030C9420034602000000FF0800BB
:10007000053E5B4F5B3E053E6B4F6B3E051C3E7C79
:100080003E1C05183C7E3C18051C577D571C051C62
:100090005E7F5E1C0400183C1805FFE7C3E7FF0401
:1000A0000018241805FFE7DBE7FF0530483A060E85
:1000B00005262979292605407F05050705407F0586
:1000C000253F055A3CE73C5A057F3E1C1C080508A5
:1000D0001C1C3E7F0514227F221405FFFFFFFFFF3B
:1000E00005F0F0F0F0F003FFFFFF05000000FFFF58
:1000F000050F0F0F0F0F0508047E04080510207E62
:1001000020100508082A1C0805081C2A080805AA4A
:10011000005500AA05AA55AA55AA0530383E383020
:1001200005060E3E0E06020000015F0307000705EC
:10013000147F147F1405444AFF4A32056313086490
:10014000630536494936480107033E4141034141B1
:100150003E05082A1C2A080508083E08080260E037
:100160000408080808026060056010080403053EE2
:100170005149453E0304027F0571494949460541FD
:1001800049494936050F0808087F054F4949493153
:10019000053E4949493005030101017F05364949BA
:1001A000493605064949493E026C6C026CEC03086D
:1001B0001422041414141403221408050159090903
:1001C00006053E415D594E057E0909097E057F49B8
:1001D000494936053E41414141057F4141413E0586
:1001E0007F49494941057F09090901053E414149C6
:1001F00079057F0808087F03417F4105304141416F
:100200003F057F08142241057F40404040057F02A2
:100210000C027F057F0408107F053E4141413E05E9
:100220007F09090906053E4141617E057F091929BB
:10023000460546494949310501017F0101053F4015
:1002400040403F051F2040201F053F4038403F05EC
:1002500063140814630503047804030561514945D8
:1002600043037F41410503040810600341417F05BA
:100270000402010204048080808003010204043827
:1002800044447C047F44443804384444440438449F
:10029000447F043854545804047E05010418A4A46F
:1002A0007C047F040478017D0384857C047F10280E
:1002B00044017F057C04780478047C0404780438C5
:1002C00044443804FC24241804182424FC047C042A
:1002D0000408045854543403047F04043C40407C14
:1002E000041C20407C053C4030403C046C10106CE9
:1002F000041CA0A07C046454544C04083641410101
:100300007F04414136080402010201057F41414159
:100310007F053E55555541053844443844057C2AEF
:100320002A3E14057E0202060605027E027E0205B2
:100330006355494163053844443C0405407E201E12
:10034000200506027E0202086313086463006060F1
:10035000052A2A2A2A2A03514A4403444A510500FD
:1003600000FF010303E080FF053612362436030246
:100370000502021818021010053040FF0101041F89
:1003800001011E000000000901017F017F020C0233
:100390007F0000000000000100017D0418247E247D
:1003A00004447E454105221C141C2205012A7C2A96
:1003B000010177044E55553903020002077E81BDC5
:1003C000A5A5817E0326292F0508142A14220408D6
:1003D00008081803080808077E81BD95A9817E05D5
:1003E00001010101010302050203242E2403191552
:1003F000120315150A02020104F8204078050609C7
:100400007F017F021818040080A0C003121F100390
:100410002629260522142A140808402F1008041E35
:10042000117C08402F10080462554C0915553F10E7
:1004300008041E117C053048484D400578151614F7
:1004400078057814161578057A1514157A05781636
:10045000151679057815141578057814151478078C
:100460007E09097F494941059EA1612121057C54EE
:10047000554644057C54564544057E55544546052D
:100480007C5554454403457E4403447E4503467DE4
:100490004603457C4505087F49413E057C0A1122FB
:1004A0007D053844454638053844464538053A45C3
:1004B00044453A05384645463905384544453805EA
:1004C0002214081422057C625A463E053C404142F3
:1004D0003C053C4042413C053C4241423C053C41DC
:1004E00040413C0502047A0502043F12120C057ECD
:1004F00049494E30043845467C043844467D04382A
:1005000046457E043A45467D043845447D04304ADC
:100510004D7A0720545438545458049CA262220443
:10052000385556580438545659043856555A0438D4
:1005300055545902017A027A0103027902030278C2
:100540000204304B4B3C047A090A710430494A30AA
:100550000430484A3104304A49320432494A3104AD
:10056000394444390508082A08080438544C38042A
:10057000384142780438404279043842417A043A9A
:1005800040407A0418A0A27904FC282810041AA07C
:10059000A07A00000000240027002A0000000000CC
:1005A000250028002B000000000023002600290061
:1005B0000404040404040404020202020202030309
:1005C0000303030301020408102040800102040811
:1005D00010200102040810200000000800020100A1
:1005E000000304070000000000000000D90A0B0B04
:1005F00011241FBECFEFD8E0DEBFCDBF11E0A0E0D9
:10060000B1E0E8EAFAE102C005900D92AE30B10720
:10061000D9F722E0AEE0B1E001C01D92A035B207EB
:10062000E1F712E0C7EFD2E004C02197FE010E947B
:10063000150CC63FD107C9F70E946C070C94470DF3
:100640000C940000833081F028F4813099F08230DE
:10065000A9F008958730A9F08830C9F08430B1F44A
:10066000809180008F7D03C0809180008F77809380
:100670008000089584B58F7784BD089584B58F7DFB
:10068000FBCF8091B0008F778093B0000895809168
:10069000B0008F7DF9CFCF93DF93282F30E0F901A1
:1006A000E852FA4F8491F901EC53FA4FD491F901D1
:1006B000E055FA4FC491CC23A1F081110E9422038E
:1006C000EC2FF0E0EE0FFF1FEA55FA4FA591B49121
:1006D000EC91ED2381E090E009F480E0DF91CF918F
:1006E000089580E090E0FACF1F93CF93DF93282FF7
:1006F00030E0F901E852FA4F8491F901EC53FA4FD6
:10070000D491F901E055FA4FC491CC23A9F0162FEA
:1007100081110E942203EC2FF0E0EE0FFF1FE45640
:10072000FA4FA591B4918FB7F894EC91111108C0CC
:10073000D095DE23DC938FBFDF91CF911F91089579
:10074000DE2BF8CFCF93DF9390E0FC01EC53FA4F10
:10075000249180559A4FFC0184918823D1F090E038
:10076000880F991FFC01EE56FA4FA591B491FC0138
:10077000E456FA4FC591D491623071F49FB7F89462
:100780003C91822F809583238C93E8812E2B2883A4
:100790009FBFDF91CF9108958FB7F894EC912E2BE6
:1007A0002C938FBFF6CF3FB7F8948091230190919F
:1007B0002401A0912501B091260126B5A89B05C072
:1007C0002F3F19F00196A11DB11D3FBFBA2FA92FD0
:1007D000982F8827BC01CD01620F711D811D911DCD
:1007E00042E0660F771F881F991F4A95D1F7089539
:1007F000EBE2F2E0438550E0440F551F70E060E00B
:10080000868597850C94400DEF92FF920F931F936E
:10081000CF93DF93809133028823A1F080912A0245
:10082000882361F08FB7F89490912A02913071F586
:100830009DB3909329029DB39DBB8FBF80E58CBD76
:1008400081E08DBD60E0809132020E94740380914E
:1008500033028823F1F030E020E08091360290E00E
:10086000880F991F2817390708F03DC0E091390219
:10087000F0913A02E20FF31F80818EBD00000DB4AB
:1008800007FEFDCF8EB52F5F3F4FE7CF8093290244
:10089000D5CFD0E0C0E08091360290E0880F991F5C
:1008A000C817D90700F5E0913902F0913A02EC0F30
:1008B000FD1F0081F0903102E090300218E0602FBF
:1008C000661F6627661F8E2D0E947403000F61E06D
:1008D0008F2D0E94740360E08F2D0E9474031150CD
:1008E00071F72196D8CF61E0809132020E947403A3
:1008F00080913302882371F080912A02882351F07D
:100900009FB7F89420912A0280912902213049F45E
:100910008DBB9FBFDF91CF911F910F91FF90EF9003
:1009200008958FBFF7CFCF92DF92EF92FF920F9390
:100930001F93CF93DF93EB0153E0D695C7955A955C
:10094000E1F72C2F90913602C91708F056C1883074
:1009500008F053C16770772750912D028E0111273F
:1009600039E0C39FE0011124E0913702F091380291
:10097000EC0FFD1F90912F02A82FB0E030912E02B6
:10098000442309F4D0C0552309F4A4C047E050E043
:100990004A1B5B0B911101C0AD01E40FF51F908163
:1009A00047E050E0461B570B3111A4C0C12CD12C9D
:1009B0007601C394062E04C0CC0CDD1CEE1CFF1C7B
:1009C0000A94D2F7C92AC082E0913702F091380226
:1009D000EC0FFD1F308590912F0240912D02442392
:1009E00009F4EBC0992321F087E090E08A1B9B0B70
:1009F00041E050E060E070E004C0440F551F661F06
:100A0000771F8A95D2F7432B4087D0903F02DD2095
:100A100009F4F5C080913602281708F051C0F12C76
:100A2000E12CCC24C394CE0CE0913702F091380233
:100A3000EC0FFD1F808590E00E2C02C095958795E8
:100A40000A94E2F780FF2DC00E94F80380913602DD
:100A50008150990B801B910B880F991F20913902AF
:100A600030913A02820F931FFC01C082E09137025D
:100A7000F0913802EC0FFD1FEE0DFF1D40818091BB
:100A800036028150990B801B910B880F991F209182
:100A9000390230913A02820F931FFC0141830E9478
:100AA0000404FFEFEF1AFF0A38E0E316F10409F03F
:100AB000B8CF8091370290913802C80FD91F18869D
:100AC0008D2DDF91CF911F910F91FF90EF90DF90CF
:100AD000CF90089547E050E0461B570B911101C09D
:100AE000AB01E40FF51F9081332381F047E050E024
:100AF0004A1B5B0BC12CD12C7601C39404C0CC0CD7
:100B0000DD1CEE1CFF1C4A95D2F75CCFC12CD12C0A
:100B10007601C394082E04C0CC0CDD1CEE1CFF1C17
:100B20000A94D2F74FCF5523F9F047E050E04A1B23
:100B30005B0B911101C0AD01E40FF51F908147E0FF
:100B400050E0461B570B31111FC0C12CD12C760130
:100B5000C394062E04C0CC0CDD1CEE1CFF1C0A94B2
:100B6000D2F7C094C9222FCF47E050E0461B570B65
:100B7000911101C0AB01E40FF51F9081332381F087
:100B800047E050E04A1B5B0BC12CD12C7601C3948B
:100B900004C0CC0CDD1CEE1CFF1C4A95D2F7E1CF43
:100BA000C12CD12C7601C394082E04C0CC0CDD1CC2
:100BB000EE1CFF1C0A94D2F7D4CF992391F047E0A2
:100BC00050E0461B570B81E090E0A0E0B0E004C08D
:100BD000880F991FAA1FBB1F4A95D2F7832B8087C6
:100BE00014CF81E090E0A0E0B0E004C0880F991F2E
:100BF000AA1FBB1F6A95D2F7F1CFD12C61CFDD249C
:100C0000D3945ECF0F931F93CF93DF93C7E2D1E0CE
:100C100010E000E0229680912701909128010817AA
:100C2000190764F4FE01E058FF4F6081718141E0D3
:100C300088810E9493040F5F1F4FECCFDF91CF910B
:100C40001F910F910895EF92FF920F931F93CF93EF
:100C5000DF93FF24F394D0E0C0E001E010E0B9E0BE
:100C6000EB2E0E94F80398010C2E02C0220F331FB6
:100C70000A94E2F7E0E090E080913602E817E0F5B0
:100C8000EE9DB0011124A0913702B0913802A60F59
:100C9000B71F18964C9150E042235323452B51F136
:100CA0004E2F50E08150990B841B950B880F991F94
:100CB000A0913902B0913A02A80FB91FFC92A091FD
:100CC0003702B0913802A60FB71FAC0FBD1F6C9151
:100CD000809136028150990B841B950B880F991FC8
:100CE0004091390250913A02840F951FDC01119610
:100CF0006C9391E0EF5FC0CF91110E9404042196A4
:100D0000F394C830D10509F0ACCF80E099E0209190
:100D10003602821758F4E0913702F0913802899F29
:100D2000E00DF11D112410868F5FF1CFDF91CF917F
:100D30001F910F91FF90EF900895FF920F931F93D3
:100D4000CF93DF938A30910508F061C08B01EC01ED
:100D5000F09036020E94F80340E0E02F5FEF5F0D55
:100D6000C230D10509F449C088F42097E9F08E2FEC
:100D70009BE0C130D105F1F04F5F541788F7DF9148
:100D8000CF911F910F91FF900C940404C330D105B3
:100D9000B9F1C430D10581F781E00115110509F4DD
:100DA00080E0819599E006C081E00115110509F008
:100DB00080E09CE0642F70E0209136022150330BDC
:100DC000261B370B220F331FA0913902B0913A0234
:100DD000A20FB31F9C93209136022150330B261B88
:100DE000370B220F331F6091390270913A02260FA0
:100DF000371FD90111968C93BFCF8E2F9AE0DACF8F
:100E000081E00115110509F480E09FE0D3CF21E0D6
:100E10006130710509F020E00B9761F020933F02EB
:100E20006130710549F4DF91CF911F910F91FF90CF
:100E30000C94230620934002DF91CF911F910F91D4
:100E4000FF9008951F920F920FB60F9211242F93C7
:100E50003F938F939F93AF93BF9380911F01909186
:100E60002001A0912101B091220130911E0123E0C7
:100E7000230F2D3758F50196A11DB11D20931E019A
:100E800080931F0190932001A0932101B093220130
:100E90008091230190912401A0912501B091260118
:100EA0000196A11DB11D8093230190932401A0936D
:100EB0002501B0932601BF91AF919F918F913F91F2
:100EC0002F910F900FBE0F901F90189526E8230FBB
:100ED0000296A11DB11DD2CF789484B5826084BDE5
:100EE00084B5816084BD85B5826085BD85B581602E
:100EF00085BD80916E00816080936E0010928100AC
:100F00008091810082608093810080918100816066
:100F10008093810080918000816080938000809127
:100F2000B10084608093B1008091B00081608093B3
:100F3000B00080917A00846080937A0080917A007A
:100F4000826080937A0080917A00816080937A0039
:100F500080917A00806880937A001092C10080911D
:100F60003302882309F4C4C0CFB7F89480910F01ED
:100F7000811127C0EAEBF5E08491EEECF5E0949165
:100F8000E82FF0E0EE0FFF1FEE56FA4FA591B49157
:100F9000EC91E92321F461E08AE00E94740361E0AE
:100FA0008AE00E94A2038CB580618CBD8CB5806400
:100FB0008CBD61E08DE00E94A20361E08BE00E94A5
:100FC000A20380910F018F5F80930F01CFBF61E07B
:100FD000809132020E94A20361E0809132020E945D
:100FE000740310923C0210923B0210923E02109247
:100FF0003D0280914102909142028856904009F44E
:101000009CC0E8E6F0E0F0934202E09341021092C7
:10101000430288E0809344021092470210924602F5
:101020008FEF90E0909349028093480210924B0218
:1010300010924A02E491E63409F033C0E9E6F0E0A8
:10104000E491E13009F45FC082E090E0E23029F5FC
:10105000EAE6F0E08491EBE6F0E0E49190E0982F8E
:1010600088278E0F911D9093470280934602ECE6ED
:10107000F0E08491EDE6F0E0E49190E0982F88278D
:101080008E0F911D9093490280934802EEE6F0E0A6
:10109000E491E093440287E090E090934B028093C8
:1010A0004A02C0904A02D0904B02F12CE12C2091D0
:1010B000460230914702409148025091490260E057
:1010C0004217530708F437C0F601E859FF4F8491DF
:1010D000681708F4682F90E0B0E0A0E00196A11D29
:1010E000B11DC80ED91EEA1EFB1E2F5F3F4FE8CF71
:1010F00061E0809130020E94A20361E080913102A0
:101100000E94A20364CFEAE6F0E0E491F0E0F093FD
:101110004702E0934602EBE6F0E0E491F0E0F09362
:101120004902E0934802ECE6F0E0E491E0934402E7
:1011300085E090E0B2CF60934502C091360279E03D
:10114000C79FC00111240E941B0C8C019093380290
:10115000809337028C2F90E0880F991F0E941B0C00
:1011600090933A0280933902892B09F451C0012BE4
:1011700009F44EC070E060E083E090E00E949D06BC
:1011800067E070E081E090E00E949D0667E070E01B
:1011900082E090E00E949D0670E060E084E090E0D4
:1011A0000E949D0690913602915080E069E058E0DF
:1011B0004FEF869F90011124A0913702B091380221
:1011C000A20FB31FFD01752F11927A95E9F7E091F7
:1011D0003702F0913802E20FF31F40878F5F9817B4
:1011E00040F780913F0281110E94230670E060E089
:1011F00090E080E00E949D0670E060E08BE090E06F
:101200000E949D0661E070E08AE090E00E949D06E9
:1012100062E080E00E94A20362E081E00E94A203FB
:1012200062E082E00E94A20362E083E00E94A203E7
:101230000E940206609100017091010141E08091DD
:1012400002010E94930408E010E060E0862E60E056
:10125000962EC1E0D0E0BB24B39480911D01882379
:10126000F1F057E2C52E51E0D52E712C612C82E0B1
:10127000C80ED11C8091270190912801681679062B
:1012800074F4F601E058FF4F6081718140E0F6018F
:1012900080810E949304FFEF6F1A7F0AE8CFC0900D
:1012A0002901D0902A01D0921C01C0921B016090AC
:1012B000A9017090AA0170921A016092190180E050
:1012C0000E944B03892BA1F4809117019091180182
:1012D000892B71F4D0931601C0931501109214015B
:1012E000109213011092120110921101B0921D017F
:1012F00081E00E944B03892BA1F48091150190910C
:101300001601892B71F4D0931801C0931701109224
:101310001401109213011092120110921101B09257
:101320001D0182E00E944B03892BA1F480911101E1
:1013300090911201892B71F41092160110921501EF
:101340001092180110921701D0931401C093130149
:10135000B0921D0183E00E944B0320911301309154
:101360001401892B89F42115310571F410921601AD
:10137000109215011092180110921701D0931201CA
:10138000C0931101B0921D01609115017091160179
:10139000660D771D8091170190911801681B790BDC
:1013A00070931A0160931901C601820F931F209157
:1013B000110130911201821B930B90931C018093B9
:1013C0001B0120911D01222361F0209110012111A8
:1013D00008C08830910518F46830710570F1B0923A
:1013E00010010E94D3036B017C014CE2442E552472
:1013F0005394612C712C0E94D3036C197D098E09C2
:101400009F09683E734081059105A8F321E0421AC7
:1014100051086108710878EEC70E73E0D71EE11C11
:10142000F11C411451046104710429F781149104E1
:1014300009F413CF0E94000010CF209102013091D7
:1014400003018217930709F052C0209100013091E7
:1014500001016217730709F04AC040E00E9493043B
:101460000E947A0BB8010E94ED0B909303018093C8
:1014700002010E947A0BB8010E94ED0BBC0190930F
:10148000010180930001809102019091030140913C
:10149000270150912801E9E2F1E030E020E0241733
:1014A00035070CF046C0A191B1918A179B0749F40A
:1014B000DF01A258BF4F0D90BC91A02D6A177B078A
:1014C00079F22F5F3F4FEBCF8091190190911A0174
:1014D0009093AA018093A90180911B0190911C0116
:1014E00090932A01809329010E9402067ACF4091AD
:1014F000270150912801E9E2F1E030E020E02417D3
:101500003507F4F5A191B1918A179B0751F4DF01DA
:10151000A258BF4F0D90BC91A02D6A177B0709F40C
:101520005ECF2F5F3F4FEBCF7093AA016093A9016D
:10153000D7CF41E00E949304809127019091280128
:101540009C012F5F3F4F3093280120932701FC011E
:10155000EE0FFF1FE95DFE4F181619060CF0B4CF11
:1015600001972081318133832283DF01A058BF4F4F
:101570002D913C91119712962D933C933297ECCF7D
:10158000FA01EE0FFF1FE95DFE4F415051093297FE
:10159000141615064CF62081318133832283DF0136
:1015A000A058BF4F2D913C91119712962D933C93CB
:1015B000ECCFEBE2F2E08BE085838DE086838AE07E
:1015C000878310868EE091E09287818781E0838710
:1015D000848B22E030E031832083828383831482F2
:1015E000E7E2F1E083E090E091838083138212824E
:1015F00015821482178216823093AA012093A901C2
:1016000081E090E09093AC018093AB011092AE0129
:101610001092AD01089580913302882399F09FB70D
:10162000F89480910F01882319F0815080930F0165
:1016300080910F01811105C08CB58F7B8CBD1092FC
:101640002A029FBF80913702909138020E94B70C06
:101650008091390290913A020C94B70C8F929F922C
:10166000AF92BF92CF92DF92EF92FF92CF93DF9330
:10167000EC01688179818A819B8161157105810501
:10168000910521F464E279ED8BE597E02DE133EFEC
:1016900041E050E00E948A0B49015A019B01AC01D4
:1016A000A7EAB1E40E94A90B6B017C01ACEEB4EF98
:1016B000A50194010E94B70BDC01CB018C0D9D1D8F
:1016C000AE1DBF1DB7FF03C00197A109B0488883B5
:1016D0009983AA83BB839F77DF91CF91FF90EF908F
:1016E000DF90CF90BF90AF909F908F9008950E9411
:1016F0002E0B089584E091E00E942E0B0895B0E037
:10170000A0E08093040190930501A0930601B0939B
:1017100007010895052E97FB1EF400940E94A10B6B
:1017200057FD07D00E94BC0B07FC03D04EF40C946D
:10173000A10B50954095309521953F4F4F4F5F4FEE
:10174000089590958095709561957F4F8F4F9F4F2D
:1017500008950E94DE0BA59F900DB49F900DA49F4D
:10176000800D911D11240895B7FF0C94A90B0E94C0
:10177000A90B821B930B0895A1E21A2EAA1BBB1B77
:10178000FD010DC0AA1FBB1FEE1FFF1FA217B3074D
:10179000E407F50720F0A21BB30BE40BF50B661F63
:1017A000771F881F991F1A9469F760957095809527
:1017B00090959B01AC01BD01CF010895A29FB0019E
:1017C000B39FC001A39F700D811D1124911DB29F75
:1017D000700D811D1124911D089597FB072E16F49D
:1017E000009407D077FD09D00E94010C07FC05D0BA
:1017F0003EF4909581959F4F0895709561957F4F28
:101800000895AA1BBB1B51E107C0AA1FBB1FA61747
:10181000B70710F0A61BB70B881F991F5A95A9F799
:1018200080959095BC01CD010895EE0FFF1F0590A6
:10183000F491E02D09940F931F93CF93DF9382309F
:10184000910510F482E090E0E0914E02F0914F0299
:1018500030E020E0B0E0A0E0309799F421153105A8
:1018600009F44AC0281B390B24303105D8F58A8188
:101870009B816115710589F1FB0193838283FE01D0
:1018800011C0408151810281138148175907E0F04E
:101890004817590799F4109761F012960C93129714
:1018A00013961C933296CF01DF91CF911F910F9128
:1018B000089500934E0210934F02F4CF2115310585
:1018C00051F04217530738F0A901DB019A01BD011D
:1018D000DF01F801C1CFEF01F9CF90934F02809360
:1018E0004E02CDCFFE01E20FF31F81939193225060
:1018F000310939832883D7CF20914C0230914D0292
:10190000232B41F420910A0130910B0130934D02B9
:1019100020934C02209108013091090121153105D5
:1019200041F42DB73EB740910C0150910D01241B9D
:10193000350BE0914C02F0914D02E217F307A0F451
:101940002E1B3F0B2817390778F0AC014E5F5F4F15
:101950002417350748F04E0F5F1F50934D024093F8
:101960004C02819391939FCFF0E0E0E09CCFCF9326
:10197000DF930097E9F0FC01329713821282A09165
:101980004E02B0914F02ED0130E020E01097A1F43B
:1019900020813181820F931F20914C0230914D02A2
:1019A0002817390709F061C0F0934D02E0934C020B
:1019B000DF91CF910895EA01CE17DF07E8F54A815C
:1019C0005B819E0141155105B1F7E901FB83EA8373
:1019D00049915991C40FD51FEC17FD0761F480811F
:1019E00091810296840F951FE901998388838281F2
:1019F00093819B838A83F0E0E0E012968D919C9125
:101A000013970097B9F52D913C911197CD0102964E
:101A1000820F931F20914C0230914D0228173907F5
:101A200039F6309751F510924F0210924E02B09352
:101A30004D02A0934C02BCCFD383C283408151811D
:101A4000840F951FC817D90761F44E5F5F4F8881D7
:101A50009981480F591F518340838A819B819383C9
:101A600082832115310509F0B0CFF0934F02E09346
:101A70004E029ECFFD01DC01C0CF13821282D7CF70
:101A8000DC0101C06D9341505040E0F7089512E031
:101A9000C7EFD2E004C0FE010E94150C2196C83F9A
:081AA000D107C9F7F894FFCF4C
:0E1AA800040004000100000000005002800055
:00000001FF
